:020000040800F2
:10000000B1AA010000000000000000000000000094
:1000100000000000000000000000000000000000E0
:1000200000000000000000000000000000000000D0
:1000300000000000000000000000000000000000C0
:1000400000000000000000000000000000000000B0
:1000500000000000000000000000000000000000A0
:100060000000000000000000000000000000000090
:100070000000000000000000000000000000000080
:100080000000000000000000000000000000000070
:100090000000000000000000000000000000000060
:1000A0000000000000000000000000000000000050
:1000B0000000000000000000000000000000000040
:1000C0000000000000000000000000000000000030
:1000D0000000000000000000000000000000000020
:1000E0000000000000000000000000000000000010
:1000F0000000000000000000000000000000000000
:1001000000000000000000000000000000000000EF
:1001100000000000000000000000000000000000DF
:1001200000000000000000000000000000000000CF
:1001300000000000000000000000000000000000BF
:1001400000000000000000000000000000000000AF
:100150000000000000000000000000007370043088
:10016000170500001305C5FF8545F605637BB5003F
:1001700089816378B500170500001305C5002E9529
:1001800002859302002073A0027D970200009382F3
:1001900062E773907230970200009382E266739078
:1001A000C27E73E0C07E970200009382A25D7390CE
:1001B0005230970100189381E16A178100181301EA
:1001C00061E4171500001305E5B79705001893853E
:1001D00065E317060018130666E963FAC500832273
:1001E000050023A0550011059105E3EAC5FE17059A
:1001F00000181305A5E797050018938525F1637787
:10020000B500232005001105E36DB5FE73F0023241
:10021000170500001305C56A97000000E780E06538
:1002200097000000E780406D97000000E780C0491C
:100230000145814597000000E78000081703000092
:100240006700A36401A073E00232828073F002327F
:0402500082800000A8
:100280000A50726F6772616D2068617320657869CA
:10029000746564207769746820636F64653A000050
:1002A000307800006E6D690A0000000074726170A1
:1002B0000A00000041111305306006C622C44AC07E
:1002C00026C297000000E780A01413052060970065
:1002D0000000E780E01337140140130504C0854691
:1002E0000D46C14597000000E780200713050480F4
:1002F000930600020D469145130904C097000000C3
:10030000E780A0051304048097000000E7806042A6
:1003100097000000E780203E85454A859700000051
:10032000E780E00D930420039305000222859700E7
:100330000000E780400D11E101A00545FD14970084
:100340000000E780403BEDF085454A8597000000BE
:10035000E780200B55BF93F7050193F8F50099C38B
:10036000B3E8C8008147054EBD4E130F8002930FBE
:10037000800421433316FE00758E1DC2139727009B
:10038000832205003398EE001348F8FF33785800B5
:100390003397E800336707016399E50550C918C131
:1003A0008507E39967FC054EBD4E130F8002930F3E
:1003B000800441433316FE00758E05C6139727004F
:1003C0000117832245003398EE001348F8FF337875
:1003D00058003397E80033670701639CE50150C973
:1003E00058C18507E39867FC8280E39AF5FB10C942
:1003F0007DB7E397F5FF10C9E5B70CC982804CC9FA
:10040000828008456D8D3335A0008280B717024089
:10041000135765003E9714438547B397A700D58FC0
:100420001CC38280B71702409843B706FFE0B106AD
:100430001367170098C3D843758FD8C39843B7067E
:10044000F7FEFD16758F98C39843B706FCFFFD169F
:10045000758F98C3D843B70601DFFD16758FD8C3D3
:1004600023A607029843B706F7EAFD16758F98C3CF
:100470003707FF0098C794434167D98E94C3930709
:10048000F7FF3717024014431396E6006344060053
:10049000FD17F5FBB717024098439316E70063C3B7
:1004A000060001A0D843B706C4DFFD16D8C3D84361
:1004B000D8C3D84313670740D8C3D843758FD8C370
:1004C000D843B7062920558FD8C3D857BD76758F26
:1004D000D8D7D857C166938616F1558FD8D7984389
:1004E000B7060004558F98C3B71702409843931678
:1004F0004700E3DD06FE9843B7060010558F98C30A
:10050000B7170240984393162700E3DD06FE984391
:10051000B7060001558F98C3B7170240984393164A
:100520006700E3DD06FED843719BD8C3D843136749
:100530002700D8C3371702405C43A18BF5DF8280C8
:100540007971B705000822D47D462A849385052851
:100550000A8506D697000000E780A04079468A8584
:10056000094597000000E780204AA28509459700C9
:100570000000E780C004B705000805469385052BF9
:10058000094597000000E780204801A037070020B8
:10059000130707061C43B7060020938686103E9576
:1005A000636BD500B77600209386060063E5A6004E
:1005B00008C33E858280FD57EDBF79714ECEAE896E
:1005C000B705000809469385052A22D426D24AD0C9
:1005D00052CC56CA06D62A89714497000000E7809B
:1005E000A0423D4AA54AF154B3178A00B3F7370138
:1005F000B3D7870093F7F70F63ECFA0293870703EB
:1006000093F7F70F05469305F1004A857114A30788
:10061000F10097000000E780203FE31794FCB25000
:10062000225492540259F249624AD24A4561828068
:1006300093877703F1B7B70700D223800700A3851C
:1006400007001205B71700D23E9563E3A70082802A
:1006500023A00700C107D5BFF327503093F707FC4D
:1006600093E73700739057308280B7050008411137
:1006700015469385452A054506C697000000E78084
:10068000A038054597000000E780C0EB4111934773
:10069000F5FF22C406C6139747012A8409E797008D
:1006A0000000E780C0FCB705000815469385C52A01
:1006B000054597000000E78020352285970000005F
:1006C000E78040E8411106C697000000E780C0D5EA
:1006D0001305700597000000E78020F697000000E2
:1006E000E780C0F7B2404101170300006700E3B59F
:1006F0008280B70700D103A8070083A847009D6741
:10070000938787973305F5028145370600D1032388
:10071000060083234600B30603413337D300B38773
:100720001341998F6394F500E3E3A6FE82804111A3
:1007300006C697000000E780202495473365F50240
:10074000B2409307803E410109053305F5028280DE
:100750000000000000000000000000000000000099
:100760000000000000000000000000000000000089
:100770000000000000000000000000000000000079
:100780005D7106C012C216C41AC61EC82ACA2ECC73
:1007900032CE36D03AD23ED442D646D872DA76DC61
:1007A0007ADEFEC0F322103496C0F322003096C2E7
:1007B000F322407C96C4732520348A85970000007C
:1007C000E78000ED864273901234964273900230B7
:1007D000A6427390427C82401242A2423243C243FC
:1007E0005245E245724682561257A2573258C258B5
:1007F000525EE25E725F864F6161730020300000DE
:10080000000000005D7106C012C216C41AC61EC8E0
:100810002ACA2ECC32CE36D03AD23ED442D646D890
:1008200072DA76DC7ADEFEC073D0E87E7350F97E31
:1008300073D0B97EF390D07E73700430B64273905B
:10084000427CA642739012349642739022348240C6
:100850001242A2423243C2435245E2457246825698
:100860001257A2573258C258525EE25E725F864FEC
:10087000616173002030AA85814601460145170356
:1008800000006700831D411122C406C697070000BF
:10089000938767252A8491C7814597000000E780E8
:1008A0008024970700009387A74988431C5591C36C
:1008B0008297228597000000E780C0C84111970702
:1008C00000009387274822C41704000013048447BC
:1008D0001D8C26C206C60984BE8411E4B24022449F
:1008E0009244410182807D1493172400A6979C4373
:1008F0008297E5B74111970700009387A74422C468
:1009000017040000130404441D8C26C24AC006C606
:10091000098481443E896396840297070000938787
:100920006742170400001304E4411D8C09848144CC
:100930003E89639F8400B2402244924402494101AF
:10094000828093972400CA979C4385048297E1B7DD
:1009500093972400CA979C4385048297D9BF2A8322
:1009600009CA83830500230073007D1605038505EE
:100970006DFA8280411197F7FF179387E76E22C4C3
:10098000804306C61C5C8DEF614597000000E78040
:100990000022B737CDAB08DC9387E7301CC1B7170F
:1009A0006DE6938747235CC1B7E705009387C7EEE1
:1009B0001CC5AD472316F5000547814718C95CC91A
:1009C000105C3787954CB7F75158144A484A1307BB
:1009D000D7F29387D742B387F602B2402244330559
:1009E000E5023E95B387E60233B7E6029386170029
:1009F00014CA2A9733B5F6003A9548CA0605058108
:100A00004101828097F7FF1793870766B2862E868B
:100A1000AA8588431703000067008300411122C4A0
:100A20002A842E85B285368697F7FF1723AC076C8C
:100A300006C697000000E780802CFD576319F5007B
:100A400097F7FF179387076C9C4391C31CC0B24074
:100A500022444101828097F7FF17938727619C43C7
:100A60002A8E8DE717F7FF171307076197F7FF1710
:100A700023AEE75E17F5FFF71305C558BA8719C50A
:100A80001C4117F5FF17232DF566BA87D8437D481B
:100A90007D556347E804630E0E0203A887086301CF
:100AA000080493182700C29823A0C8000323081045
:100AB00005463316E6003363C3002320681023A0E5
:100AC000D80889466317DE0083264810558E2322F6
:100AD000C810930617000A07D4C3BA978CC70145FC
:100AE0008280797152CC56CA5AC85EC606D622D4C4
:100AF00026D24AD04ECE62C42A8B2E8A97FAFF178E
:100B0000938ACA56854B03A40A0011C8444083291E
:100B100084081389F4FF8A04A294635E0900B2502A
:100B2000225492540259F249624AD24A424BB24B81
:100B3000224C45618280630E0A00639509007D198D
:100B4000F114E1BF93172900CE9783A70708E39814
:100B500047FF5840DC407D176318270323222401F8
:100B6000F9DF032C44006388090083A6091033973A
:100B70002B01F98E89EE8297584083A70A00E3146F
:100B800087F9E30EF4FA41B723A20400D1BF93160C
:100B90002900CE968C4283A64910758F01E75A85AD
:100BA0008297D9BF2E858297C1BF97F7FF1793878A
:100BB000A74BAA8588431703000067008300011133
:100BC00026CA93843500F19806CE22CC4AC84EC678
:100BD000A104B14763F3F406B14463E2B4062A8981
:100BE00097000000E780601197F7FF179387474849
:100BF00098433A8439EC97F7FF179387A7479C43AC
:100C000099EB81454A8597000000E780A00B97F794
:100C1000FF1723A1A746A6854A8597000000E78015
:100C2000600AFD59631F3507B1472320F9004A8543
:100C300097000000E780800C29A0E3D004FAB147B8
:100C40001CC10145F2406244D2444249B2490561A7
:100C500082801C40858F63C30704AD4663F6F600AF
:100C60001CC03E9404C001A85C406317870217F7BC
:100C7000FF17232FF73E4A8597000000E780000802
:100C80001305B4009307440061993307F5405DDB19
:100C90003A94898F1CC07DB75CC3F1BF2287404066
:100CA00091BF130435007198E30E85FAB305A44093
:100CB0004A8597000000E780E000E31535FBADB7FB
:100CC000411122C42A842E8597F7FF1723AC0742CF
:100CD00006C697000000E780A08BFD576319F5005A
:100CE00097F7FF17938707429C4391C31CC0B240FC
:100CF00022444101828082808280411106C622C442
:100D000081460147814793080004730000002A844C
:100D1000635A05003304804097000000E7806001BB
:100D200000C17D542285B24022444101828097F760
:0A0D3000FF17938767338843828022
:040D3C000000002093
:100D400000000000000000000000000000000000A3
:100D50000000000000000000000000000000000093
:100D60000000000000000000000000000000000083
:100D70000000000000000000000000000000000073
:100D80000000000000000000000000000000000063
:100D90000000000000000000000000000000000053
:080DA000080100200000002002
:040000050800015C92
:00000001FF
